{
  "_format": "hh-sol-artifact-1",
  "contractName": "MelodiaTracking",
  "sourceName": "contracts/MelodiaTracking.sol",
  "abi": [
    {
      "anonymous": false,
      "inputs": [
        {
          "indexed": true,
          "internalType": "address",
          "name": "owner",
          "type": "address"
        },
        {
          "indexed": true,
          "internalType": "address",
          "name": "newContract",
          "type": "address"
        }
      ],
      "name": "NewContract",
      "type": "event"
    },
    {
      "inputs": [
        {
          "internalType": "address",
          "name": "_contract",
          "type": "address"
        }
      ],
      "name": "addNewContract",
      "outputs": [],
      "stateMutability": "nonpayable",
      "type": "function"
    },
    {
      "inputs": [
        {
          "internalType": "uint256",
          "name": "",
          "type": "uint256"
        }
      ],
      "name": "arrayOfContracts",
      "outputs": [
        {
          "internalType": "address",
          "name": "",
          "type": "address"
        }
      ],
      "stateMutability": "view",
      "type": "function"
    },
    {
      "inputs": [],
      "name": "geAllContract",
      "outputs": [
        {
          "internalType": "address[]",
          "name": "",
          "type": "address[]"
        }
      ],
      "stateMutability": "view",
      "type": "function"
    }
  ],
  "bytecode": "0x608060405234801561001057600080fd5b50610470806100206000396000f3fe608060405234801561001057600080fd5b50600436106100415760003560e01c80638be3cbc2146100465780639a7fda6614610076578063bf52b87714610092575b600080fd5b610060600480360381019061005b9190610278565b6100b0565b60405161006d91906102e6565b60405180910390f35b610090600480360381019061008b919061032d565b6100ef565b005b61009a6101af565b6040516100a79190610418565b60405180910390f35b600081815481106100c057600080fd5b906000526020600020016000915054906101000a900473ffffffffffffffffffffffffffffffffffffffff1681565b6000819080600181540180825580915050600190039060005260206000200160009091909190916101000a81548173ffffffffffffffffffffffffffffffffffffffff021916908373ffffffffffffffffffffffffffffffffffffffff1602179055508073ffffffffffffffffffffffffffffffffffffffff163373ffffffffffffffffffffffffffffffffffffffff167f17182ea1a6748f7923ea0bfb4bf8bc76cc894e662541ad1ea15797322d541db860405160405180910390a350565b6060600080548060200260200160405190810160405280929190818152602001828054801561023357602002820191906000526020600020905b8160009054906101000a900473ffffffffffffffffffffffffffffffffffffffff1673ffffffffffffffffffffffffffffffffffffffff16815260200190600101908083116101e9575b5050505050905090565b600080fd5b6000819050919050565b61025581610242565b811461026057600080fd5b50565b6000813590506102728161024c565b92915050565b60006020828403121561028e5761028d61023d565b5b600061029c84828501610263565b91505092915050565b600073ffffffffffffffffffffffffffffffffffffffff82169050919050565b60006102d0826102a5565b9050919050565b6102e0816102c5565b82525050565b60006020820190506102fb60008301846102d7565b92915050565b61030a816102c5565b811461031557600080fd5b50565b60008135905061032781610301565b92915050565b6000602082840312156103435761034261023d565b5b600061035184828501610318565b91505092915050565b600081519050919050565b600082825260208201905092915050565b6000819050602082019050919050565b61038f816102c5565b82525050565b60006103a18383610386565b60208301905092915050565b6000602082019050919050565b60006103c58261035a565b6103cf8185610365565b93506103da83610376565b8060005b8381101561040b5781516103f28882610395565b97506103fd836103ad565b9250506001810190506103de565b5085935050505092915050565b6000602082019050818103600083015261043281846103ba565b90509291505056fea2646970667358221220fbeb5ac488262cbaf13498beabb0efe645a3fdd6c768a0d662bc196a1a7b0c9a64736f6c63430008090033",
  "linkReferences": {},
  "deployedLinkReferences": {}
}