{
  "_format": "hh-sol-artifact-1",
  "contractName": "MelodiaTracking",
  "sourceName": "contracts/MelodiaTracking.sol",
  "abi": [
    {
      "anonymous": false,
      "inputs": [
        {
          "indexed": true,
          "internalType": "address",
          "name": "owner",
          "type": "address"
        },
        {
          "indexed": true,
          "internalType": "address",
          "name": "newContract",
          "type": "address"
        }
      ],
      "name": "NewContract",
      "type": "event"
    },
    {
      "inputs": [
        {
          "internalType": "address",
          "name": "_contract",
          "type": "address"
        }
      ],
      "name": "addNewContract",
      "outputs": [],
      "stateMutability": "nonpayable",
      "type": "function"
    },
    {
      "inputs": [
        {
          "internalType": "uint256",
          "name": "",
          "type": "uint256"
        }
      ],
      "name": "arrayOfContracts",
      "outputs": [
        {
          "internalType": "address",
          "name": "",
          "type": "address"
        }
      ],
      "stateMutability": "view",
      "type": "function"
    },
    {
      "inputs": [],
      "name": "getAllContracts",
      "outputs": [
        {
          "internalType": "address[]",
          "name": "",
          "type": "address[]"
        }
      ],
      "stateMutability": "view",
      "type": "function"
    }
  ],
  "bytecode": "0x608060405234801561001057600080fd5b50610470806100206000396000f3fe608060405234801561001057600080fd5b50600436106100415760003560e01c806318d3ce96146100465780638be3cbc2146100645780639a7fda6614610094575b600080fd5b61004e6100b0565b60405161005b919061032d565b60405180910390f35b61007e6004803603810190610079919061038a565b61013e565b60405161008b91906103c6565b60405180910390f35b6100ae60048036038101906100a9919061040d565b61017d565b005b6060600080548060200260200160405190810160405280929190818152602001828054801561013457602002820191906000526020600020905b8160009054906101000a900473ffffffffffffffffffffffffffffffffffffffff1673ffffffffffffffffffffffffffffffffffffffff16815260200190600101908083116100ea575b5050505050905090565b6000818154811061014e57600080fd5b906000526020600020016000915054906101000a900473ffffffffffffffffffffffffffffffffffffffff1681565b6000819080600181540180825580915050600190039060005260206000200160009091909190916101000a81548173ffffffffffffffffffffffffffffffffffffffff021916908373ffffffffffffffffffffffffffffffffffffffff1602179055508073ffffffffffffffffffffffffffffffffffffffff163373ffffffffffffffffffffffffffffffffffffffff167f17182ea1a6748f7923ea0bfb4bf8bc76cc894e662541ad1ea15797322d541db860405160405180910390a350565b600081519050919050565b600082825260208201905092915050565b6000819050602082019050919050565b600073ffffffffffffffffffffffffffffffffffffffff82169050919050565b600061029482610269565b9050919050565b6102a481610289565b82525050565b60006102b6838361029b565b60208301905092915050565b6000602082019050919050565b60006102da8261023d565b6102e48185610248565b93506102ef83610259565b8060005b8381101561032057815161030788826102aa565b9750610312836102c2565b9250506001810190506102f3565b5085935050505092915050565b6000602082019050818103600083015261034781846102cf565b905092915050565b600080fd5b6000819050919050565b61036781610354565b811461037257600080fd5b50565b6000813590506103848161035e565b92915050565b6000602082840312156103a05761039f61034f565b5b60006103ae84828501610375565b91505092915050565b6103c081610289565b82525050565b60006020820190506103db60008301846103b7565b92915050565b6103ea81610289565b81146103f557600080fd5b50565b600081359050610407816103e1565b92915050565b6000602082840312156104235761042261034f565b5b6000610431848285016103f8565b9150509291505056fea264697066735822122060c37b6053738a7b33de1076f025a8e7093430979b73b3fddacdf730162372fa64736f6c63430008090033",
  "linkReferences": {},
  "deployedLinkReferences": {}
}